:03000000020D6F7F
:100D6F00787FE4F6D8FD750D00750E007581AD7EA8
:060D7F00008ED9020DC038
:10004E0075D900C2AF121102C291D290D285C28070
:10005E00D281C282D28375DB02D287D292D293D260
:10006E0094D295C296C297756500121167121159F6
:10007E00D293D294D2AF7F0A121145C29575560013
:10008E007F011210127D6B7C027F0412002ED22093
:10009E00D226756700756800C2267B007A00792E1D
:1000AE00C003C002C0017B007A0079328B418A42C4
:1000BE008943754401D001D002D00312077178A98B
:1000CE00762078AA7600087605753D00753C007599
:1000DE003B00753A00D22120200302004E758701A5
:1000EE0078A9E6FFEF120C8E010F010212100566C1
:1000FE001105DB1206572006B42106A722000006C2
:10010E00577B007A00792EC003C002C0017B007AB3
:10011E000079328B418A428943754400D001D00266
:10012E00D00312077178A8A60778A8E6FFEF600340
:10013E000201E9B296302121AF31AE30AD2FAC2E97
:10014E008F398E388D378C36C221752D00752C4027
:10015E00752B00752A000201E9AF39AE38AD37AC08
:10016E0036AB31AA30A92FA82ED3120C3D4011AEBA
:10017E002CAF2DC3E5299FF529E5289EF528800E85
:10018E00AE2CAF2DEF2529F529EE3528F5287F0168
:10019E007E007D007C00AB2DAA2CA92BA82AD312A1
:1001AE000C3D4017AF2DAE2CAD2BAC2A7801120CA6
:1001BE004E8F2D8E2C8D2B8C2A800778A97610755C
:1001CE00650AAF31AE30AD2FAC2E8F398E388D37EC
:1001DE008C36AD29AC287F0312002E78A8E6FFEFEF
:1001EE00600878A8E6FFEFB4040AD2267567047596
:1001FE0068E2C226E568456760030206FF78A976C5
:10020E00200206FF7B007A00792EC003C002C001D7
:10021E007B007A0079328B418A428943754400D043
:10022E0001D002D00312077178A8A60778A8E6FFBE
:10023E00EF703F7F807E1A7D067C00AB31AA30A91D
:10024E002FA82ED3120C3D40297FC07E277D097C1E
:10025E0000AB31AA30A92FA82EC3120C3D50137833
:10026E00A8760AD2952095FDD2267567047568E2A8
:10027E00C22678A8E6FFEF600302053DAF39AE381F
:10028E00AD37AC36AB31AA30A92FA82EC3120C3D18
:10029E00700302043B7F207EA17D077C00AB31AA58
:1002AE0030A92FA82ED3120C3D4004D2228002C2B8
:1002BE00227F207EA17D077C00AB39AA38A937A802
:1002CE0036D3120C3D4004D2238002C223A2223028
:1002DE002301B35003020385AF39AE38AD37AC36C8
:1002EE00AB31AA30A92FA82ED3120C3D4044C3E542
:1002FE00319539FFE5309538FEE52F9537FDE52E22
:10030E009536FC8F2D8E2C8D2B8C2AAE2CAF2D8EF0
:10031E00268F27E53D252DFFE53C352CFEE53B35AB
:10032E002BFDE53A352AFC8F3D8E3C8D3B8C3A02F7
:10033E00042BC3E5399531FFE5389530FEE5379549
:10034E002FFDE536952EFC8F2D8E2C8D2B8C2AAE07
:10035E002CAF2D8E268F27C3E53D952DFFE53C95C1
:10036E002CFEE53B952BFDE53A952AFC8F3D8E3C08
:10037E008D3B8C3A02042B202252C374409539FFD8
:10038E0074429538FE740F9537FDE49536FCEF25D3
:10039E0031FFEE3530FEED352FFDEC352EFC8F2D79
:1003AE008E2C8D2B8C2AAE2CAF2D8E268F27E53DD5
:1003BE00252DFFE53C352CFEE53B352BFDE53A358D
:1003CE002AFC8F3D8E3C8D3B8C3A8051C3744095F8
:1003DE0031FF74429530FE740F952FFDE4952EFC7F
:1003EE00EF2539FFEE3538FEED3537FDEC3536FCB1
:1003FE008F2D8E2C8D2B8C2AAE2CAF2D8E268F27EB
:10040E00C3E53D952DFFE53C952CFEE53B952BFD7B
:10041E00E53A952AFC8F3D8E3C8D3B8C3AAF31AE42
:10042E0030AD2FAC2E8F398E388D378C3678AAE6BC
:10043E00FE08E6FFEF4E700302053D78AA08E616A9
:10044E001870011614FF8606EF4E600302053D7804
:10045E00AA7600087605B2967FFF7EFF7DFF7C7F31
:10046E00AB3DAA3CA93BA83AD3120C3D4069AF3D27
:10047E00AE3CAD3BAC3A120C30EF2401FFEE340033
:10048E00FEED3400FDEC3400FC8F3D8E3C8D3B8C3C
:10049E003AAF3DAE3CAD3BAC3A7B057A0079007885
:1004AE0000120B9E8F3D8E3C8D3B8C3A7FF07E046E
:1004BE007D007C00AB3DAA3CA93BA83A120B137BF6
:1004CE00E87A0379007800120B9EC3E5299FF5297F
:1004DE00E5289EF5288043AF3DAE3CAD3BAC3A7B64
:1004EE00057A0079007800120B9E8F3D8E3C8D3B75
:1004FE008C3A7FF07E047D007C00AB3DAA3CA93B8C
:10050E00A83A120B137BE87A0379007800120B9E3F
:10051E00EF2529F529EE3528F528753D00753C00A7
:10052E00753B00753A00AD29AC287F0312002E787A
:10053E00A8E6FFEF600878A8E6FFEFB4040AD2261B
:10054E007567047568E2C226E568456760030206B2
:10055E00FF78A976220206FF7B007A00792EC0036F
:10056E00C002C0017B007A0079328B418A428943F6
:10057E00754400D001D002D00312077178A8A607E7
:10058E00E55620E00778A8E6FFEF7018D295209583
:10059E00FDD2267567047568E2C2265356CC78A93B
:1005AE007612C29678A8E6FFEF600878A8E6FFEF0D
:1005BE00B4040AD2267567047568E2C226E568455A
:1005CE006760030206FF78A976220206FF7B007A97
:1005DE0000792EC003C002C0017B007A0079328BF5
:1005EE00418A428943754400D001D002D0031207DC
:1005FE007178A8A60778A8E6FFEF7024D226756753
:10060E00047568E2C2265356CC78A9761075650A31
:10061E00AF31AE30AD2FAC2E8F398E388D378C3644
:10062E0078A8E6FFEF600878A8E6FFEFB4040AD2D8
:10063E00267567047568E2C226E5684567600302A1
:10064E0006FF78A976220206FF1210E08E288F2967
:10065E00E529B4FF1DE528B4FF18752885752966B0
:10066E00C22578A97611D2267567047568E2C2266E
:10067E008017752D01752C00752B00752A00756578
:10068E0064D29778A97621D225AD29AC287F0312A2
:10069E00002E7F0A1211458058756564D29778A98D
:1006AE007621D225804BE55620E0277B007A007913
:1006BE002EC003C002C0017B007A0079328B418AC2
:1006CE00428943754400D001D002D003120771EF66
:1006DE00701FD221D2952095FDD2267567047568BC
:1006EE00E2C2265356CC78A97601756532C225C270
:1006FE0096E55960030200E57559647F00121012E9
:10070E0078ACA60608A60778ACE6FE08E6FFD3EF9F
:10071E009400EE941B4014D293C294D226756201BB
:10072E007563F4C22675DB420200E578ACE6FE087E
:10073E00E6FFC3EF9420EE94175014D294C293D2D6
:10074E00267562017563F4C22675DB420200E5D29E
:10075E0093D294E563456260030200E575DB020205
:02076E0000E5A4
:010770002266
:0E112B008F41755880854161D28C208CFD2249
:021012008F3E0F
:10101400753F00754000D291E53E600C7F8012114F
:101024002B7FEE12112B80257F0112112B7F0012D2
:10103400112BAF577E008E3F8F407F0012112BAFD4
:10104400577E00EF7F00FEEF4240EE423FC291AE7A
:031054003FAF406B
:011057002276
:10002E008F3E8C3F8D40C290AF3E12112BE53FFFAD
:0D003E007E0012112BAF4012112BD2902228
:0A1145008F3E853E64E56470FC22D5
:03004B00020EF8AA
:070EF800C0E0C0D075D0106E
:100EFF0030D82BC29585F95385FA54AF537E00EF46
:100F0F007F00FEAD547C00EF2DF55EEE3CF55DE508
:100F1F005630E1054356048003435601C2D830D9F9
:100F2F0002C2D930DA2985F95385FA54AF537E00BE
:100F3F00EF7F00FEAD547C00EF2DF55BEE3CF55AD4
:100F4F00E55630E0054356048003435602C2DA30BB
:060F5F00DF04055FC2DFA4
:050F6500D0D0D0E03205
:03000B00020FC51C
:100FC500C0E0C0D075D000C007E5587004C28C8061
:100FD50033308020308106E55842578007E558F4C4
:100FE500FFEF5257C280E558C313F558E558701402
:100FF500C28C8010D280E5615558FFEF6004D28223
:0D1005008002C282C28DD007D0D0D0E03270
:03002B00020E853D
:100E8500C0E0C0D0C2CF20261CE56345626008E5FE
:100E950063156370021562E56845676008E56815C6
:100EA5006870021567E56460021564E5596002150E
:100EB500591560E565B56006E5656002D297E560A0
:100EC500700CE565C394645002C297756064302563
:100ED5001D1566E55CB56606E55C6002D296E566BD
:100EE500700CE55CC394325002C296756632D0D060
:030EF500D0E03218
:100D850002004EE493A3F8E493A34003F68001F236
:100D950008DFF48029E493A3F85407240CC8C3336F
:100DA500C4540F4420C8834004F456800146F6DF3E
:100DB500E4800B010204081020408090000AE47EC4
:100DC500019360BCA3FF543F30E509541FFEE49333
:100DD500A360010ECF54C025E060A840B8E493A3FA
:100DE500FAE493A3F8E493A3C8C582C8CAC583CA25
:100DF500F0A3C8C582C8CAC583CADFE9DEE780BEDD
:01000A0000F5
:04002600B5620D03AF
:06115900121139D2272219
:0C113900751F00C228752000751E0022E2
:060771008B3E8A3F894027
:1007770075450D75460D754801E5446012751CFFFA
:10078700751DFF751BFF751AFF7519FF7518FFE5B6
:100797001E64016003020B1075480274032545F5BA
:1007A70045E5452546F546754700E547C3941E5080
:1007B70017AF4774802FF8E6FFEF2545F545E54568
:1007C7002546F546054780E2AF4774802FF8E6FFD8
:1007D700E5456F6003020B0DAF4774812FF8E6FF05
:1007E700E5466F6003020B0D7548037883E6FFEF5C
:1007F70054C0F547E54730E603754804E54764C04C
:100807006003020B0D7882E6FFEF6003020B0D78A1
:1008170086E6FFEF3395E0FE754D008F4E7887E64D
:10082700FFEF3395E0FEEF7F00FE7F00EF424EEED5
:10083700424D788AE6FFEF3395E0FEFDFCEF54FF6B
:10084700FFEE5400FEED5400FDEC5400FC8F4C8E7F
:100857004B8D4A8C49788BE6FFEF3395E0FEFDFC24
:100867007808120C61EF5400FFEE54FFFEED5400C0
:10087700FDEC5400FCE54C4FFFE54B4EFEE54A4DC1
:10088700FDE5494CFC8F4C8E4B8D4A8C49788CE6A4
:10089700FFEF3395E0FEFDFC7810120C61EF54007A
:1008A700FFEE5400FEED54FFFDEC5400FCE54C4F09
:1008B700FFE54B4EFEE54A4DFDE5494CFC8F4C8E5E
:1008C7004B8D4A8C49788DE6FFEF3395E0FEFDFCB2
:1008D7007818120C61EF5400FFEE5400FEED54003F
:1008E700FDEC54FFFCE54C4FFFE54B4EFEE54A4D52
:1008F700FDE5494CFC8F4C8E4B8D4A8C49AF1BAEA6
:100907001AAD19AC18AB4CAA4BA94AA849C3120C8B
:100917003D6003020AE9E51D654E7004E51C654D5F
:100927006003020AE9788EE6FFEF3395E0FEFDFCEF
:10093700EF54FFFFEE5400FEED5400FDEC5400FCB5
:100947008F528E518D508C4F788FE6FFEF3395E0A5
:10095700FEFDFC7808120C61EF5400FFEE54FFFE19
:10096700ED5400FDEC5400FCE5524FFFE5514EFEFF
:10097700E5504DFDE54F4CFC8F528E518D508C4FFD
:100987007890E6FFEF3395E0FEFDFC7810120C61DE
:10099700EF5400FFEE5400FEED54FFFDEC5400FC55
:1009A700E5524FFFE5514EFEE5504DFDE54F4CFC3E
:1009B7008F528E518D508C4F7891E6FFEF3395E033
:1009C700FEFDFC7818120C61EF5400FFEE5400FE98
:1009D700ED5400FDEC54FFFCE5524FFFE5514EFE90
:1009E700E5504DFDE54F4CFC8F528E518D508C4F8D
:1009F700AF52AE51AD50AC4FAB3EAA3FA940120C1F
:100A070074789AE6FFEF3395E0FEFDFCEF54FFFFA5
:100A1700EE5400FEED5400FDEC5400FC8F528E5155
:100A27008D508C4F789BE6FFEF3395E0FEFDFC7809
:100A370008120C61EF5400FFEE54FFFEED5400FD69
:100A4700EC5400FCE5524FFFE5514EFEE5504DFDDD
:100A5700E54F4CFC8F528E518D508C4F789CE6FFA2
:100A6700EF3395E0FEFDFC7810120C61EF5400FFA8
:100A7700EE5400FEED54FFFDEC5400FCE5524FFF31
:100A8700E5514EFEE5504DFDE54F4CFC8F528E5122
:100A97008D508C4F789DE6FFEF3395E0FEFDFC7897
:100AA70018120C61EF5400FFEE5400FEED5400FDE8
:100AB700EC54FFFCE5524FFFE5514EFEE5504DFD6E
:100AC700E54F4CFC8F528E518D508C4FAF52AE512B
:100AD700AD50AC4FAB41AA42A943120C7475480004
:100AE70080020545E54C2488FFE54B3413FEE54AB3
:100AF7003400FDE5493400FC8F1B8E1A8D198C18C4
:0B0B0700854D1C854E1D751E00AF487B
:010B120022C0
:03002300020CD8F4
:100CD800C0E0C083C082C0D075D000C000C004C0CE
:050CE80005C006C00775
:100CED00309904D227C299309865859955E51E70C3
:100CFD005C30283CAF20052074802FF8A6557880F5
:100D0D00E6FFEF3395E0FEEF2406FFEE3400FEAD77
:100D1D00207C00C3ED9FEE6480F8EC648098400564
:100D2D00751E01C228E520C394284021C228801DCC
:100D3D00AF1FEF90002693FFEFB5550E051FE51F72
:0F0D4D00B4040AD2287520008003751F00C298D5
:100D5C00D007D006D005D004D000D0D0D082D0831C
:030D6C00D0E032A2
:10000E0075D84053D9BF75D90875DA2175DB43759C
:03001E00DC2122C0
:1010BE00758840758922758E01758AC2758CC275C8
:1010CE008DB075C80475CA3F75CBB075CC3F75CD64
:0210DE00B0223E
:04115F00759810224D
:0A114F0075A14075F80075A2792221
:1011180075A45575A5FF75D40743D43075E10175DD
:03112800E243227D
:0411630075B2C72278
:0700030075E60475A8322226
:1011020012000E1210BE12115F12114F121118129C
:061112001163120003222C
:04116700758F00225E
:100F6A00754000754100D22430243DE54125E0FF5B
:100F7A00E54033FE74002FF582741C3EF583E4933A
:100F8A00FE740193FFEFB4FF08EEB4FF04C224809D
:100F9A00D70541E54170020540C3E54194FFE540AC
:100FAA00940040C4C22480C0E54145407008E54130
:0A0FBA00154170021540AE40AF4132
:010FC400220A
:1010E000120F6A8E3E8F3FE53F25E0FFE53E33FE5F
:1010F00074002FF582741C3EF583E493FE74019313
:01110000FFEF
:0111010022CB
:040E05008E088F09BB
:100E0900750C00E50964FF7004E50864FF606A1267
:100E19000F6AEF2401F50BEE3400F50AC3E50B94D4
:100E2900FFE50A9400400D7F007E1C121058750AD8
:100E390000750B0085090CE50B25E0FFE50A33FE7B
:100E490074002FF582741C3EF583AD82AC83AF0C20
:100E5900121091E508FF7E008F0CE50B25E0FFE5F8
:100E69000A33FE74012FF582741C3EF583AD82AC02
:0B0E790083AF0C121091750C01AF0C40
:010E8400224B
:041058008E698F6AA4
:10105C00A2AFE433FF8F6BC2AF75B7A575B7F1853F
:10106C00B76CE56C64026003436C80758F03AE69EA
:10107C00AF6A8F828E8374FFF0758F00E56B24FF4F
:04108C0092AFAF6C04
:01109000223D
:061091008F6D8C6E8D6F67
:10109700A2AFE433FF8F70C2AF75B7A575B7F1750F
:1010A7008F01AE6EAF6F8F828E83E56DF0758F0007
:0610B700E57024FF92AF7A
:0110BD002210
:101C0000FFFFFFFFFFFFFFFFFFFFFFFFFFFFFFFFE4
:101C1000FFFFFFFFFFFFFFFFFFFFFFFFFFFFFFFFD4
:101C2000FFFFFFFFFFFFFFFFFFFFFFFFFFFFFFFFC4
:101C3000FFFFFFFFFFFFFFFFFFFFFFFFFFFFFFFFB4
:101C4000FFFFFFFFFFFFFFFFFFFFFFFFFFFFFFFFA4
:101C5000FFFFFFFFFFFFFFFFFFFFFFFFFFFFFFFF94
:101C6000FFFFFFFFFFFFFFFFFFFFFFFFFFFFFFFF84
:101C7000FFFFFFFFFFFFFFFFFFFFFFFFFFFFFFFF74
:101C8000FFFFFFFFFFFFFFFFFFFFFFFFFFFFFFFF64
:101C9000FFFFFFFFFFFFFFFFFFFFFFFFFFFFFFFF54
:101CA000FFFFFFFFFFFFFFFFFFFFFFFFFFFFFFFF44
:101CB000FFFFFFFFFFFFFFFFFFFFFFFFFFFFFFFF34
:101CC000FFFFFFFFFFFFFFFFFFFFFFFFFFFFFFFF24
:101CD000FFFFFFFFFFFFFFFFFFFFFFFFFFFFFFFF14
:101CE000FFFFFFFFFFFFFFFFFFFFFFFFFFFFFFFF04
:101CF000FFFFFFFFFFFFFFFFFFFFFFFFFFFFFFFFF4
:101D0000FFFFFFFFFFFFFFFFFFFFFFFFFFFFFFFFE3
:101D1000FFFFFFFFFFFFFFFFFFFFFFFFFFFFFFFFD3
:101D2000FFFFFFFFFFFFFFFFFFFFFFFFFFFFFFFFC3
:101D3000FFFFFFFFFFFFFFFFFFFFFFFFFFFFFFFFB3
:101D4000FFFFFFFFFFFFFFFFFFFFFFFFFFFFFFFFA3
:101D5000FFFFFFFFFFFFFFFFFFFFFFFFFFFFFFFF93
:101D6000FFFFFFFFFFFFFFFFFFFFFFFFFFFFFFFF83
:101D7000FFFFFFFFFFFFFFFFFFFFFFFFFFFFFFFF73
:101D8000FFFFFFFFFFFFFFFFFFFFFFFFFFFFFFFF63
:101D9000FFFFFFFFFFFFFFFFFFFFFFFFFFFFFFFF53
:101DA000FFFFFFFFFFFFFFFFFFFFFFFFFFFFFFFF43
:101DB000FFFFFFFFFFFFFFFFFFFFFFFFFFFFFFFF33
:101DC000FFFFFFFFFFFFFFFFFFFFFFFFFFFFFFFF23
:101DD000FFFFFFFFFFFFFFFFFFFFFFFFFFFFFFFF13
:101DE000FFFFFFFFFFFFFFFFFFFFFFFFFFFFFFFF03
:0E1DF000FFFFFFFFFFFFFFFFFFFFFFFFFFFFF3
:100B1300E88FF0A4CC8BF0A42CFCE98EF0A42CFC81
:100B23008AF0EDA42CFCEA8EF0A4CDA8F08BF0A4FF
:100B33002DCC3825F0FDE98FF0A42CCD35F0FCEB5E
:100B43008EF0A4FEA9F0EB8FF0A4CFC5F02ECD3923
:0F0B5300FEE43CFCEAA42DCE35F0FDE43CFC2290
:100B620075F008758200EF2FFFEE33FECD33CDCC4A
:100B720033CCC58233C5829BED9AEC99E5829840CD
:100B82000CF582EE9BFEED9AFDEC99FC0FD5F0D6AA
:100B9200E4CEFBE4CDFAE4CCF9A88222B800C1B9D4
:100BA2000059BA002DEC8BF084CFCECDFCE5F0CB12
:100BB200F97818EF2FFFEE33FEED33FDEC33FCEB4B
:100BC20033FB10D703994004EB99FB0FD8E5E4F906
:100BD200FA227818EF2FFFEE33FEED33FDEC33FCF3
:100BE200C933C910D7059BE99A4007EC9BFCE99AE7
:100BF200F90FD8E0E4C9FAE4CCFB2275F010EF2F2C
:100C0200FFEE33FEED33FDCC33CCC833C810D7072B
:100C12009BEC9AE899400AED9BFDEC9AFCE899F866
:0E0C22000FD5F0DAE4CDFBE4CCFAE4C8F922F9
:0D0C3000CFF4CFCEF4CECDF4CDCCF4CC2259
:100C3D00EB9FF5F0EA9E42F0E99D42F0E89C45F00D
:010C4D002284
:100C4E00E8600FECC313FCED13FDEE13FEEF13FF84
:030C5E00D8F122A8
:100C6100E8600FEFC333FFEE33FEED33FDEC33FCF1
:030C7100D8F12295
:100C7400BB010789828A83020CC05005E9F8020C83
:0A0C8400B4BBFE05E9F8020CCC2217
:100C8E00D083D082F8E4937012740193700DA3A3F5
:100C9E0093F8740193F5828883E473740293686009
:060CAE00EFA3A3A380DF09
:0C0CB400ECF608EDF608EEF608EFF6226C
:0C0CC000ECF0A3EDF0A3EEF0A3EFF022A7
:0C0CCC00ECF208EDF208EEF208EFF22264
:00000001FF
